{
  "_format": "hh-sol-artifact-1",
  "contractName": "TeamG",
  "sourceName": "contracts/Token.sol",
  "abi": [
    {
      "inputs": [],
      "stateMutability": "nonpayable",
      "type": "constructor"
    },
    {
      "anonymous": false,
      "inputs": [
        {
          "indexed": true,
          "internalType": "address",
          "name": "owner",
          "type": "address"
        },
        {
          "indexed": true,
          "internalType": "address",
          "name": "approved",
          "type": "address"
        },
        {
          "indexed": true,
          "internalType": "uint256",
          "name": "tokenId",
          "type": "uint256"
        }
      ],
      "name": "Approval",
      "type": "event"
    },
    {
      "anonymous": false,
      "inputs": [
        {
          "indexed": true,
          "internalType": "address",
          "name": "owner",
          "type": "address"
        },
        {
          "indexed": true,
          "internalType": "address",
          "name": "operator",
          "type": "address"
        },
        {
          "indexed": false,
          "internalType": "bool",
          "name": "approved",
          "type": "bool"
        }
      ],
      "name": "ApprovalForAll",
      "type": "event"
    },
    {
      "anonymous": false,
      "inputs": [
        {
          "indexed": true,
          "internalType": "bytes32",
          "name": "role",
          "type": "bytes32"
        },
        {
          "indexed": true,
          "internalType": "bytes32",
          "name": "previousAdminRole",
          "type": "bytes32"
        },
        {
          "indexed": true,
          "internalType": "bytes32",
          "name": "newAdminRole",
          "type": "bytes32"
        }
      ],
      "name": "RoleAdminChanged",
      "type": "event"
    },
    {
      "anonymous": false,
      "inputs": [
        {
          "indexed": true,
          "internalType": "bytes32",
          "name": "role",
          "type": "bytes32"
        },
        {
          "indexed": true,
          "internalType": "address",
          "name": "account",
          "type": "address"
        },
        {
          "indexed": true,
          "internalType": "address",
          "name": "sender",
          "type": "address"
        }
      ],
      "name": "RoleGranted",
      "type": "event"
    },
    {
      "anonymous": false,
      "inputs": [
        {
          "indexed": true,
          "internalType": "bytes32",
          "name": "role",
          "type": "bytes32"
        },
        {
          "indexed": true,
          "internalType": "address",
          "name": "account",
          "type": "address"
        },
        {
          "indexed": true,
          "internalType": "address",
          "name": "sender",
          "type": "address"
        }
      ],
      "name": "RoleRevoked",
      "type": "event"
    },
    {
      "anonymous": false,
      "inputs": [
        {
          "indexed": true,
          "internalType": "address",
          "name": "from",
          "type": "address"
        },
        {
          "indexed": true,
          "internalType": "address",
          "name": "to",
          "type": "address"
        },
        {
          "indexed": true,
          "internalType": "uint256",
          "name": "tokenId",
          "type": "uint256"
        }
      ],
      "name": "Transfer",
      "type": "event"
    },
    {
      "inputs": [],
      "name": "DEFAULT_ADMIN_ROLE",
      "outputs": [
        {
          "internalType": "bytes32",
          "name": "",
          "type": "bytes32"
        }
      ],
      "stateMutability": "view",
      "type": "function"
    },
    {
      "inputs": [],
      "name": "MINTER_ROLE",
      "outputs": [
        {
          "internalType": "bytes32",
          "name": "",
          "type": "bytes32"
        }
      ],
      "stateMutability": "view",
      "type": "function"
    },
    {
      "inputs": [
        {
          "internalType": "address",
          "name": "to",
          "type": "address"
        },
        {
          "internalType": "uint256",
          "name": "tokenId",
          "type": "uint256"
        }
      ],
      "name": "approve",
      "outputs": [],
      "stateMutability": "nonpayable",
      "type": "function"
    },
    {
      "inputs": [
        {
          "internalType": "address",
          "name": "owner",
          "type": "address"
        }
      ],
      "name": "balanceOf",
      "outputs": [
        {
          "internalType": "uint256",
          "name": "",
          "type": "uint256"
        }
      ],
      "stateMutability": "view",
      "type": "function"
    },
    {
      "inputs": [
        {
          "internalType": "uint256",
          "name": "tokenId",
          "type": "uint256"
        }
      ],
      "name": "burn",
      "outputs": [],
      "stateMutability": "nonpayable",
      "type": "function"
    },
    {
      "inputs": [
        {
          "internalType": "uint256",
          "name": "tokenId",
          "type": "uint256"
        }
      ],
      "name": "getApproved",
      "outputs": [
        {
          "internalType": "address",
          "name": "",
          "type": "address"
        }
      ],
      "stateMutability": "view",
      "type": "function"
    },
    {
      "inputs": [
        {
          "internalType": "bytes32",
          "name": "role",
          "type": "bytes32"
        }
      ],
      "name": "getRoleAdmin",
      "outputs": [
        {
          "internalType": "bytes32",
          "name": "",
          "type": "bytes32"
        }
      ],
      "stateMutability": "view",
      "type": "function"
    },
    {
      "inputs": [
        {
          "internalType": "bytes32",
          "name": "role",
          "type": "bytes32"
        },
        {
          "internalType": "address",
          "name": "account",
          "type": "address"
        }
      ],
      "name": "grantRole",
      "outputs": [],
      "stateMutability": "nonpayable",
      "type": "function"
    },
    {
      "inputs": [
        {
          "internalType": "bytes32",
          "name": "role",
          "type": "bytes32"
        },
        {
          "internalType": "address",
          "name": "account",
          "type": "address"
        }
      ],
      "name": "hasRole",
      "outputs": [
        {
          "internalType": "bool",
          "name": "",
          "type": "bool"
        }
      ],
      "stateMutability": "view",
      "type": "function"
    },
    {
      "inputs": [
        {
          "internalType": "address",
          "name": "owner",
          "type": "address"
        },
        {
          "internalType": "address",
          "name": "operator",
          "type": "address"
        }
      ],
      "name": "isApprovedForAll",
      "outputs": [
        {
          "internalType": "bool",
          "name": "",
          "type": "bool"
        }
      ],
      "stateMutability": "view",
      "type": "function"
    },
    {
      "inputs": [],
      "name": "name",
      "outputs": [
        {
          "internalType": "string",
          "name": "",
          "type": "string"
        }
      ],
      "stateMutability": "view",
      "type": "function"
    },
    {
      "inputs": [
        {
          "internalType": "uint256",
          "name": "tokenId",
          "type": "uint256"
        }
      ],
      "name": "ownerOf",
      "outputs": [
        {
          "internalType": "address",
          "name": "",
          "type": "address"
        }
      ],
      "stateMutability": "view",
      "type": "function"
    },
    {
      "inputs": [
        {
          "internalType": "bytes32",
          "name": "role",
          "type": "bytes32"
        },
        {
          "internalType": "address",
          "name": "account",
          "type": "address"
        }
      ],
      "name": "renounceRole",
      "outputs": [],
      "stateMutability": "nonpayable",
      "type": "function"
    },
    {
      "inputs": [
        {
          "internalType": "bytes32",
          "name": "role",
          "type": "bytes32"
        },
        {
          "internalType": "address",
          "name": "account",
          "type": "address"
        }
      ],
      "name": "revokeRole",
      "outputs": [],
      "stateMutability": "nonpayable",
      "type": "function"
    },
    {
      "inputs": [
        {
          "internalType": "address",
          "name": "to",
          "type": "address"
        },
        {
          "internalType": "string",
          "name": "uri",
          "type": "string"
        }
      ],
      "name": "safeMint",
      "outputs": [],
      "stateMutability": "nonpayable",
      "type": "function"
    },
    {
      "inputs": [
        {
          "internalType": "address",
          "name": "from",
          "type": "address"
        },
        {
          "internalType": "address",
          "name": "to",
          "type": "address"
        },
        {
          "internalType": "uint256",
          "name": "tokenId",
          "type": "uint256"
        }
      ],
      "name": "safeTransferFrom",
      "outputs": [],
      "stateMutability": "nonpayable",
      "type": "function"
    },
    {
      "inputs": [
        {
          "internalType": "address",
          "name": "from",
          "type": "address"
        },
        {
          "internalType": "address",
          "name": "to",
          "type": "address"
        },
        {
          "internalType": "uint256",
          "name": "tokenId",
          "type": "uint256"
        },
        {
          "internalType": "bytes",
          "name": "_data",
          "type": "bytes"
        }
      ],
      "name": "safeTransferFrom",
      "outputs": [],
      "stateMutability": "nonpayable",
      "type": "function"
    },
    {
      "inputs": [
        {
          "internalType": "address",
          "name": "operator",
          "type": "address"
        },
        {
          "internalType": "bool",
          "name": "approved",
          "type": "bool"
        }
      ],
      "name": "setApprovalForAll",
      "outputs": [],
      "stateMutability": "nonpayable",
      "type": "function"
    },
    {
      "inputs": [
        {
          "internalType": "bytes4",
          "name": "interfaceId",
          "type": "bytes4"
        }
      ],
      "name": "supportsInterface",
      "outputs": [
        {
          "internalType": "bool",
          "name": "",
          "type": "bool"
        }
      ],
      "stateMutability": "view",
      "type": "function"
    },
    {
      "inputs": [],
      "name": "symbol",
      "outputs": [
        {
          "internalType": "string",
          "name": "",
          "type": "string"
        }
      ],
      "stateMutability": "view",
      "type": "function"
    },
    {
      "inputs": [
        {
          "internalType": "uint256",
          "name": "tokenId",
          "type": "uint256"
        }
      ],
      "name": "tokenURI",
      "outputs": [
        {
          "internalType": "string",
          "name": "",
          "type": "string"
        }
      ],
      "stateMutability": "view",
      "type": "function"
    },
    {
      "inputs": [
        {
          "internalType": "address",
          "name": "from",
          "type": "address"
        },
        {
          "internalType": "address",
          "name": "to",
          "type": "address"
        },
        {
          "internalType": "uint256",
          "name": "tokenId",
          "type": "uint256"
        }
      ],
      "name": "transferFrom",
      "outputs": [],
      "stateMutability": "nonpayable",
      "type": "function"
    }
  ],
  "bytecode": "0x60806040523480156200001157600080fd5b506040518060400160405280600681526020017f5465616d204700000000000000000000000000000000000000000000000000008152506040518060400160405280600281526020017f544700000000000000000000000000000000000000000000000000000000000081525081600090805190602001906200009692919062000264565b508060019080519060200190620000af92919062000264565b505050620000c76000801b33620000ff60201b60201c565b620000f97f9f2df0fed2c77648de5860a4cc508cd0818c85b8b8a1ab4ceeef8d981c8956a633620000ff60201b60201c565b62000379565b620001118282620001f160201b60201c565b620001ed5760016007600084815260200190815260200160002060000160008373ffffffffffffffffffffffffffffffffffffffff1673ffffffffffffffffffffffffffffffffffffffff16815260200190815260200160002060006101000a81548160ff021916908315150217905550620001926200025c60201b60201c565b73ffffffffffffffffffffffffffffffffffffffff168173ffffffffffffffffffffffffffffffffffffffff16837f2f8788117e7eff1d82e926ec794901d17c78024a50270940304540a733656f0d60405160405180910390a45b5050565b60006007600084815260200190815260200160002060000160008373ffffffffffffffffffffffffffffffffffffffff1673ffffffffffffffffffffffffffffffffffffffff16815260200190815260200160002060009054906101000a900460ff16905092915050565b600033905090565b828054620002729062000314565b90600052602060002090601f016020900481019282620002965760008555620002e2565b82601f10620002b157805160ff1916838001178555620002e2565b82800160010185558215620002e2579182015b82811115620002e1578251825591602001919060010190620002c4565b5b509050620002f19190620002f5565b5090565b5b8082111562000310576000816000905550600101620002f6565b5090565b600060028204905060018216806200032d57607f821691505b602082108114156200034457620003436200034a565b5b50919050565b7f4e487b7100000000000000000000000000000000000000000000000000000000600052602260045260246000fd5b613ad180620003896000396000f3fe608060405234801561001057600080fd5b50600436106101425760003560e01c806370a08231116100b8578063b88d4fde1161007c578063b88d4fde14610385578063c87b56dd146103a1578063d204c45e146103d1578063d5391393146103ed578063d547741f1461040b578063e985e9c51461042757610142565b806370a08231146102cd57806391d14854146102fd57806395d89b411461032d578063a217fddf1461034b578063a22cb4651461036957610142565b8063248a9ca31161010a578063248a9ca3146101fd5780632f2ff15d1461022d57806336568abe1461024957806342842e0e1461026557806342966c68146102815780636352211e1461029d57610142565b806301ffc9a71461014757806306fdde0314610177578063081812fc14610195578063095ea7b3146101c557806323b872dd146101e1575b600080fd5b610161600480360381019061015c919061284d565b610457565b60405161016e9190612d4b565b60405180910390f35b61017f610469565b60405161018c9190612d81565b60405180910390f35b6101af60048036038101906101aa919061289f565b6104fb565b6040516101bc9190612ce4565b60405180910390f35b6101df60048036038101906101da91906127ac565b610580565b005b6101fb60048036038101906101f69190612652565b610698565b005b610217600480360381019061021291906127e8565b6106f8565b6040516102249190612d66565b60405180910390f35b61024760048036038101906102429190612811565b610718565b005b610263600480360381019061025e9190612811565b610739565b005b61027f600480360381019061027a9190612652565b6107bc565b005b61029b6004803603810190610296919061289f565b6107dc565b005b6102b760048036038101906102b2919061289f565b610838565b6040516102c49190612ce4565b60405180910390f35b6102e760048036038101906102e291906125ed565b6108ea565b6040516102f49190613003565b60405180910390f35b61031760048036038101906103129190612811565b6109a2565b6040516103249190612d4b565b60405180910390f35b610335610a0d565b6040516103429190612d81565b60405180910390f35b610353610a9f565b6040516103609190612d66565b60405180910390f35b610383600480360381019061037e919061271c565b610aa6565b005b61039f600480360381019061039a91906126a1565b610abc565b005b6103bb60048036038101906103b6919061289f565b610b1e565b6040516103c89190612d81565b60405180910390f35b6103eb60048036038101906103e69190612758565b610b30565b005b6103f5610b8c565b6040516104029190612d66565b60405180910390f35b61042560048036038101906104209190612811565b610bb0565b005b610441600480360381019061043c9190612616565b610bd1565b60405161044e9190612d4b565b60405180910390f35b600061046282610c65565b9050919050565b606060008054610478906132e7565b80601f01602080910402602001604051908101604052809291908181526020018280546104a4906132e7565b80156104f15780601f106104c6576101008083540402835291602001916104f1565b820191906000526020600020905b8154815290600101906020018083116104d457829003601f168201915b5050505050905090565b600061050682610cdf565b610545576040517f08c379a000000000000000000000000000000000000000000000000000000000815260040161053c90612f43565b60405180910390fd5b6004600083815260200190815260200160002060009054906101000a900473ffffffffffffffffffffffffffffffffffffffff169050919050565b600061058b82610838565b90508073ffffffffffffffffffffffffffffffffffffffff168373ffffffffffffffffffffffffffffffffffffffff1614156105fc576040517f08c379a00000000000000000000000000000000000000000000000000000000081526004016105f390612f83565b60405180910390fd5b8073ffffffffffffffffffffffffffffffffffffffff1661061b610d4b565b73ffffffffffffffffffffffffffffffffffffffff16148061064a575061064981610644610d4b565b610bd1565b5b610689576040517f08c379a000000000000000000000000000000000000000000000000000000000815260040161068090612e83565b60405180910390fd5b6106938383610d53565b505050565b6106a96106a3610d4b565b82610e0c565b6106e8576040517f08c379a00000000000000000000000000000000000000000000000000000000081526004016106df90612fa3565b60405180910390fd5b6106f3838383610eea565b505050565b600060076000838152602001908152602001600020600101549050919050565b610721826106f8565b61072a81611151565b6107348383611165565b505050565b610741610d4b565b73ffffffffffffffffffffffffffffffffffffffff168173ffffffffffffffffffffffffffffffffffffffff16146107ae576040517f08c379a00000000000000000000000000000000000000000000000000000000081526004016107a590612fe3565b60405180910390fd5b6107b88282611246565b5050565b6107d783838360405180602001604052806000815250610abc565b505050565b6107ed6107e7610d4b565b82610e0c565b61082c576040517f08c379a000000000000000000000000000000000000000000000000000000000815260040161082390612fc3565b60405180910390fd5b61083581611328565b50565b6000806002600084815260200190815260200160002060009054906101000a900473ffffffffffffffffffffffffffffffffffffffff169050600073ffffffffffffffffffffffffffffffffffffffff168173ffffffffffffffffffffffffffffffffffffffff1614156108e1576040517f08c379a00000000000000000000000000000000000000000000000000000000081526004016108d890612ec3565b60405180910390fd5b80915050919050565b60008073ffffffffffffffffffffffffffffffffffffffff168273ffffffffffffffffffffffffffffffffffffffff16141561095b576040517f08c379a000000000000000000000000000000000000000000000000000000000815260040161095290612ea3565b60405180910390fd5b600360008373ffffffffffffffffffffffffffffffffffffffff1673ffffffffffffffffffffffffffffffffffffffff168152602001908152602001600020549050919050565b60006007600084815260200190815260200160002060000160008373ffffffffffffffffffffffffffffffffffffffff1673ffffffffffffffffffffffffffffffffffffffff16815260200190815260200160002060009054906101000a900460ff16905092915050565b606060018054610a1c906132e7565b80601f0160208091040260200160405190810160405280929190818152602001828054610a48906132e7565b8015610a955780601f10610a6a57610100808354040283529160200191610a95565b820191906000526020600020905b815481529060010190602001808311610a7857829003601f168201915b5050505050905090565b6000801b81565b610ab8610ab1610d4b565b8383611334565b5050565b610acd610ac7610d4b565b83610e0c565b610b0c576040517f08c379a0000000000000000000000000000000000000000000000000000000008152600401610b0390612fa3565b60405180910390fd5b610b18848484846114a1565b50505050565b6060610b29826114fd565b9050919050565b7f9f2df0fed2c77648de5860a4cc508cd0818c85b8b8a1ab4ceeef8d981c8956a6610b5a81611151565b6000610b66600861164f565b9050610b72600861165d565b610b7c8482611673565b610b868184611691565b50505050565b7f9f2df0fed2c77648de5860a4cc508cd0818c85b8b8a1ab4ceeef8d981c8956a681565b610bb9826106f8565b610bc281611151565b610bcc8383611246565b505050565b6000600560008473ffffffffffffffffffffffffffffffffffffffff1673ffffffffffffffffffffffffffffffffffffffff16815260200190815260200160002060008373ffffffffffffffffffffffffffffffffffffffff1673ffffffffffffffffffffffffffffffffffffffff16815260200190815260200160002060009054906101000a900460ff16905092915050565b60007f7965db0b000000000000000000000000000000000000000000000000000000007bffffffffffffffffffffffffffffffffffffffffffffffffffffffff1916827bffffffffffffffffffffffffffffffffffffffffffffffffffffffff19161480610cd85750610cd782611705565b5b9050919050565b60008073ffffffffffffffffffffffffffffffffffffffff166002600084815260200190815260200160002060009054906101000a900473ffffffffffffffffffffffffffffffffffffffff1673ffffffffffffffffffffffffffffffffffffffff1614159050919050565b600033905090565b816004600083815260200190815260200160002060006101000a81548173ffffffffffffffffffffffffffffffffffffffff021916908373ffffffffffffffffffffffffffffffffffffffff160217905550808273ffffffffffffffffffffffffffffffffffffffff16610dc683610838565b73ffffffffffffffffffffffffffffffffffffffff167f8c5be1e5ebec7d5bd14f71427d1e84f3dd0314c0f7b2291e5b200ac8c7c3b92560405160405180910390a45050565b6000610e1782610cdf565b610e56576040517f08c379a0000000000000000000000000000000000000000000000000000000008152600401610e4d90612e63565b60405180910390fd5b6000610e6183610838565b90508073ffffffffffffffffffffffffffffffffffffffff168473ffffffffffffffffffffffffffffffffffffffff161480610ea35750610ea28185610bd1565b5b80610ee157508373ffffffffffffffffffffffffffffffffffffffff16610ec9846104fb565b73ffffffffffffffffffffffffffffffffffffffff16145b91505092915050565b8273ffffffffffffffffffffffffffffffffffffffff16610f0a82610838565b73ffffffffffffffffffffffffffffffffffffffff1614610f60576040517f08c379a0000000000000000000000000000000000000000000000000000000008152600401610f5790612de3565b60405180910390fd5b600073ffffffffffffffffffffffffffffffffffffffff168273ffffffffffffffffffffffffffffffffffffffff161415610fd0576040517f08c379a0000000000000000000000000000000000000000000000000000000008152600401610fc790612e23565b60405180910390fd5b610fdb8383836117e7565b610fe6600082610d53565b6001600360008573ffffffffffffffffffffffffffffffffffffffff1673ffffffffffffffffffffffffffffffffffffffff168152602001908152602001600020600082825461103691906131c9565b925050819055506001600360008473ffffffffffffffffffffffffffffffffffffffff1673ffffffffffffffffffffffffffffffffffffffff168152602001908152602001600020600082825461108d91906130e8565b92505081905550816002600083815260200190815260200160002060006101000a81548173ffffffffffffffffffffffffffffffffffffffff021916908373ffffffffffffffffffffffffffffffffffffffff160217905550808273ffffffffffffffffffffffffffffffffffffffff168473ffffffffffffffffffffffffffffffffffffffff167fddf252ad1be2c89b69c2b068fc378daa952ba7f163c4a11628f55a4df523b3ef60405160405180910390a461114c8383836117ec565b505050565b6111628161115d610d4b565b6117f1565b50565b61116f82826109a2565b6112425760016007600084815260200190815260200160002060000160008373ffffffffffffffffffffffffffffffffffffffff1673ffffffffffffffffffffffffffffffffffffffff16815260200190815260200160002060006101000a81548160ff0219169083151502179055506111e7610d4b565b73ffffffffffffffffffffffffffffffffffffffff168173ffffffffffffffffffffffffffffffffffffffff16837f2f8788117e7eff1d82e926ec794901d17c78024a50270940304540a733656f0d60405160405180910390a45b5050565b61125082826109a2565b156113245760006007600084815260200190815260200160002060000160008373ffffffffffffffffffffffffffffffffffffffff1673ffffffffffffffffffffffffffffffffffffffff16815260200190815260200160002060006101000a81548160ff0219169083151502179055506112c9610d4b565b73ffffffffffffffffffffffffffffffffffffffff168173ffffffffffffffffffffffffffffffffffffffff16837ff6391f5c32d9c69d2a47ea670b442974b53935d1edc7fd64eb21e047a839171b60405160405180910390a45b5050565b6113318161188e565b50565b8173ffffffffffffffffffffffffffffffffffffffff168373ffffffffffffffffffffffffffffffffffffffff1614156113a3576040517f08c379a000000000000000000000000000000000000000000000000000000000815260040161139a90612e43565b60405180910390fd5b80600560008573ffffffffffffffffffffffffffffffffffffffff1673ffffffffffffffffffffffffffffffffffffffff16815260200190815260200160002060008473ffffffffffffffffffffffffffffffffffffffff1673ffffffffffffffffffffffffffffffffffffffff16815260200190815260200160002060006101000a81548160ff0219169083151502179055508173ffffffffffffffffffffffffffffffffffffffff168373ffffffffffffffffffffffffffffffffffffffff167f17307eab39ab6107e8899845ad3d59bd9653f200f220920489ca2b5937696c31836040516114949190612d4b565b60405180910390a3505050565b6114ac848484610eea565b6114b8848484846118e1565b6114f7576040517f08c379a00000000000000000000000000000000000000000000000000000000081526004016114ee90612dc3565b60405180910390fd5b50505050565b606061150882610cdf565b611547576040517f08c379a000000000000000000000000000000000000000000000000000000000815260040161153e90612f23565b60405180910390fd5b6000600660008481526020019081526020016000208054611567906132e7565b80601f0160208091040260200160405190810160405280929190818152602001828054611593906132e7565b80156115e05780601f106115b5576101008083540402835291602001916115e0565b820191906000526020600020905b8154815290600101906020018083116115c357829003601f168201915b5050505050905060006115f1611a78565b905060008151141561160757819250505061164a565b60008251111561163c578082604051602001611624929190612c86565b6040516020818303038152906040529250505061164a565b61164584611a8f565b925050505b919050565b600081600001549050919050565b6001816000016000828254019250508190555050565b61168d828260405180602001604052806000815250611b36565b5050565b61169a82610cdf565b6116d9576040517f08c379a00000000000000000000000000000000000000000000000000000000081526004016116d090612ee3565b60405180910390fd5b806006600084815260200190815260200160002090805190602001906117009291906123bc565b505050565b60007f80ac58cd000000000000000000000000000000000000000000000000000000007bffffffffffffffffffffffffffffffffffffffffffffffffffffffff1916827bffffffffffffffffffffffffffffffffffffffffffffffffffffffff191614806117d057507f5b5e139f000000000000000000000000000000000000000000000000000000007bffffffffffffffffffffffffffffffffffffffffffffffffffffffff1916827bffffffffffffffffffffffffffffffffffffffffffffffffffffffff1916145b806117e057506117df82611b91565b5b9050919050565b505050565b505050565b6117fb82826109a2565b61188a576118208173ffffffffffffffffffffffffffffffffffffffff166014611bfb565b61182e8360001c6020611bfb565b60405160200161183f929190612caa565b6040516020818303038152906040526040517f08c379a00000000000000000000000000000000000000000000000000000000081526004016118819190612d81565b60405180910390fd5b5050565b61189781611ef5565b60006006600083815260200190815260200160002080546118b7906132e7565b9050146118de576006600082815260200190815260200160002060006118dd9190612442565b5b50565b60006119028473ffffffffffffffffffffffffffffffffffffffff16612012565b15611a6b578373ffffffffffffffffffffffffffffffffffffffff1663150b7a0261192b610d4b565b8786866040518563ffffffff1660e01b815260040161194d9493929190612cff565b602060405180830381600087803b15801561196757600080fd5b505af192505050801561199857506040513d601f19601f820116820180604052508101906119959190612876565b60015b611a1b573d80600081146119c8576040519150601f19603f3d011682016040523d82523d6000602084013e6119cd565b606091505b50600081511415611a13576040517f08c379a0000000000000000000000000000000000000000000000000000000008152600401611a0a90612dc3565b60405180910390fd5b805181602001fd5b63150b7a0260e01b7bffffffffffffffffffffffffffffffffffffffffffffffffffffffff1916817bffffffffffffffffffffffffffffffffffffffffffffffffffffffff191614915050611a70565b600190505b949350505050565b606060405180602001604052806000815250905090565b6060611a9a82610cdf565b611ad9576040517f08c379a0000000000000000000000000000000000000000000000000000000008152600401611ad090612f63565b60405180910390fd5b6000611ae3611a78565b90506000815111611b035760405180602001604052806000815250611b2e565b80611b0d84612035565b604051602001611b1e929190612c86565b6040516020818303038152906040525b915050919050565b611b4083836121e2565b611b4d60008484846118e1565b611b8c576040517f08c379a0000000000000000000000000000000000000000000000000000000008152600401611b8390612dc3565b60405180910390fd5b505050565b60007f01ffc9a7000000000000000000000000000000000000000000000000000000007bffffffffffffffffffffffffffffffffffffffffffffffffffffffff1916827bffffffffffffffffffffffffffffffffffffffffffffffffffffffff1916149050919050565b606060006002836002611c0e919061316f565b611c1891906130e8565b67ffffffffffffffff811115611c57577f4e487b7100000000000000000000000000000000000000000000000000000000600052604160045260246000fd5b6040519080825280601f01601f191660200182016040528015611c895781602001600182028036833780820191505090505b5090507f300000000000000000000000000000000000000000000000000000000000000081600081518110611ce7577f4e487b7100000000000000000000000000000000000000000000000000000000600052603260045260246000fd5b60200101907effffffffffffffffffffffffffffffffffffffffffffffffffffffffffffff1916908160001a9053507f780000000000000000000000000000000000000000000000000000000000000081600181518110611d71577f4e487b7100000000000000000000000000000000000000000000000000000000600052603260045260246000fd5b60200101907effffffffffffffffffffffffffffffffffffffffffffffffffffffffffffff1916908160001a90535060006001846002611db1919061316f565b611dbb91906130e8565b90505b6001811115611ea7577f3031323334353637383961626364656600000000000000000000000000000000600f861660108110611e23577f4e487b7100000000000000000000000000000000000000000000000000000000600052603260045260246000fd5b1a60f81b828281518110611e60577f4e487b7100000000000000000000000000000000000000000000000000000000600052603260045260246000fd5b60200101907effffffffffffffffffffffffffffffffffffffffffffffffffffffffffffff1916908160001a905350600485901c945080611ea0906132bd565b9050611dbe565b5060008414611eeb576040517f08c379a0000000000000000000000000000000000000000000000000000000008152600401611ee290612da3565b60405180910390fd5b8091505092915050565b6000611f0082610838565b9050611f0e816000846117e7565b611f19600083610d53565b6001600360008373ffffffffffffffffffffffffffffffffffffffff1673ffffffffffffffffffffffffffffffffffffffff1681526020019081526020016000206000828254611f6991906131c9565b925050819055506002600083815260200190815260200160002060006101000a81549073ffffffffffffffffffffffffffffffffffffffff021916905581600073ffffffffffffffffffffffffffffffffffffffff168273ffffffffffffffffffffffffffffffffffffffff167fddf252ad1be2c89b69c2b068fc378daa952ba7f163c4a11628f55a4df523b3ef60405160405180910390a461200e816000846117ec565b5050565b6000808273ffffffffffffffffffffffffffffffffffffffff163b119050919050565b6060600082141561207d576040518060400160405280600181526020017f300000000000000000000000000000000000000000000000000000000000000081525090506121dd565b600082905060005b600082146120af5780806120989061334a565b915050600a826120a8919061313e565b9150612085565b60008167ffffffffffffffff8111156120f1577f4e487b7100000000000000000000000000000000000000000000000000000000600052604160045260246000fd5b6040519080825280601f01601f1916602001820160405280156121235781602001600182028036833780820191505090505b5090505b600085146121d65760018261213c91906131c9565b9150600a8561214b9190613393565b603061215791906130e8565b60f81b818381518110612193577f4e487b7100000000000000000000000000000000000000000000000000000000600052603260045260246000fd5b60200101907effffffffffffffffffffffffffffffffffffffffffffffffffffffffffffff1916908160001a905350600a856121cf919061313e565b9450612127565b8093505050505b919050565b600073ffffffffffffffffffffffffffffffffffffffff168273ffffffffffffffffffffffffffffffffffffffff161415612252576040517f08c379a000000000000000000000000000000000000000000000000000000000815260040161224990612f03565b60405180910390fd5b61225b81610cdf565b1561229b576040517f08c379a000000000000000000000000000000000000000000000000000000000815260040161229290612e03565b60405180910390fd5b6122a7600083836117e7565b6001600360008473ffffffffffffffffffffffffffffffffffffffff1673ffffffffffffffffffffffffffffffffffffffff16815260200190815260200160002060008282546122f791906130e8565b92505081905550816002600083815260200190815260200160002060006101000a81548173ffffffffffffffffffffffffffffffffffffffff021916908373ffffffffffffffffffffffffffffffffffffffff160217905550808273ffffffffffffffffffffffffffffffffffffffff16600073ffffffffffffffffffffffffffffffffffffffff167fddf252ad1be2c89b69c2b068fc378daa952ba7f163c4a11628f55a4df523b3ef60405160405180910390a46123b8600083836117ec565b5050565b8280546123c8906132e7565b90600052602060002090601f0160209004810192826123ea5760008555612431565b82601f1061240357805160ff1916838001178555612431565b82800160010185558215612431579182015b82811115612430578251825591602001919060010190612415565b5b50905061243e9190612482565b5090565b50805461244e906132e7565b6000825580601f10612460575061247f565b601f01602090049060005260206000209081019061247e9190612482565b5b50565b5b8082111561249b576000816000905550600101612483565b5090565b60006124b26124ad84613043565b61301e565b9050828152602081018484840111156124ca57600080fd5b6124d584828561327b565b509392505050565b60006124f06124eb84613074565b61301e565b90508281526020810184848401111561250857600080fd5b61251384828561327b565b509392505050565b60008135905061252a81613a28565b92915050565b60008135905061253f81613a3f565b92915050565b60008135905061255481613a56565b92915050565b60008135905061256981613a6d565b92915050565b60008151905061257e81613a6d565b92915050565b600082601f83011261259557600080fd5b81356125a584826020860161249f565b91505092915050565b600082601f8301126125bf57600080fd5b81356125cf8482602086016124dd565b91505092915050565b6000813590506125e781613a84565b92915050565b6000602082840312156125ff57600080fd5b600061260d8482850161251b565b91505092915050565b6000806040838503121561262957600080fd5b60006126378582860161251b565b92505060206126488582860161251b565b9150509250929050565b60008060006060848603121561266757600080fd5b60006126758682870161251b565b93505060206126868682870161251b565b9250506040612697868287016125d8565b9150509250925092565b600080600080608085870312156126b757600080fd5b60006126c58782880161251b565b94505060206126d68782880161251b565b93505060406126e7878288016125d8565b925050606085013567ffffffffffffffff81111561270457600080fd5b61271087828801612584565b91505092959194509250565b6000806040838503121561272f57600080fd5b600061273d8582860161251b565b925050602061274e85828601612530565b9150509250929050565b6000806040838503121561276b57600080fd5b60006127798582860161251b565b925050602083013567ffffffffffffffff81111561279657600080fd5b6127a2858286016125ae565b9150509250929050565b600080604083850312156127bf57600080fd5b60006127cd8582860161251b565b92505060206127de858286016125d8565b9150509250929050565b6000602082840312156127fa57600080fd5b600061280884828501612545565b91505092915050565b6000806040838503121561282457600080fd5b600061283285828601612545565b92505060206128438582860161251b565b9150509250929050565b60006020828403121561285f57600080fd5b600061286d8482850161255a565b91505092915050565b60006020828403121561288857600080fd5b60006128968482850161256f565b91505092915050565b6000602082840312156128b157600080fd5b60006128bf848285016125d8565b91505092915050565b6128d1816131fd565b82525050565b6128e08161320f565b82525050565b6128ef8161321b565b82525050565b6000612900826130a5565b61290a81856130bb565b935061291a81856020860161328a565b61292381613480565b840191505092915050565b6000612939826130b0565b61294381856130cc565b935061295381856020860161328a565b61295c81613480565b840191505092915050565b6000612972826130b0565b61297c81856130dd565b935061298c81856020860161328a565b80840191505092915050565b60006129a56020836130cc565b91506129b082613491565b602082019050919050565b60006129c86032836130cc565b91506129d3826134ba565b604082019050919050565b60006129eb6025836130cc565b91506129f682613509565b604082019050919050565b6000612a0e601c836130cc565b9150612a1982613558565b602082019050919050565b6000612a316024836130cc565b9150612a3c82613581565b604082019050919050565b6000612a546019836130cc565b9150612a5f826135d0565b602082019050919050565b6000612a77602c836130cc565b9150612a82826135f9565b604082019050919050565b6000612a9a6038836130cc565b9150612aa582613648565b604082019050919050565b6000612abd602a836130cc565b9150612ac882613697565b604082019050919050565b6000612ae06029836130cc565b9150612aeb826136e6565b604082019050919050565b6000612b03602e836130cc565b9150612b0e82613735565b604082019050919050565b6000612b266020836130cc565b9150612b3182613784565b602082019050919050565b6000612b496031836130cc565b9150612b54826137ad565b604082019050919050565b6000612b6c602c836130cc565b9150612b77826137fc565b604082019050919050565b6000612b8f602f836130cc565b9150612b9a8261384b565b604082019050919050565b6000612bb26021836130cc565b9150612bbd8261389a565b604082019050919050565b6000612bd56031836130cc565b9150612be0826138e9565b604082019050919050565b6000612bf86017836130dd565b9150612c0382613938565b601782019050919050565b6000612c1b6030836130cc565b9150612c2682613961565b604082019050919050565b6000612c3e6011836130dd565b9150612c49826139b0565b601182019050919050565b6000612c61602f836130cc565b9150612c6c826139d9565b604082019050919050565b612c8081613271565b82525050565b6000612c928285612967565b9150612c9e8284612967565b91508190509392505050565b6000612cb582612beb565b9150612cc18285612967565b9150612ccc82612c31565b9150612cd88284612967565b91508190509392505050565b6000602082019050612cf960008301846128c8565b92915050565b6000608082019050612d1460008301876128c8565b612d2160208301866128c8565b612d2e6040830185612c77565b8181036060830152612d4081846128f5565b905095945050505050565b6000602082019050612d6060008301846128d7565b92915050565b6000602082019050612d7b60008301846128e6565b92915050565b60006020820190508181036000830152612d9b818461292e565b905092915050565b60006020820190508181036000830152612dbc81612998565b9050919050565b60006020820190508181036000830152612ddc816129bb565b9050919050565b60006020820190508181036000830152612dfc816129de565b9050919050565b60006020820190508181036000830152612e1c81612a01565b9050919050565b60006020820190508181036000830152612e3c81612a24565b9050919050565b60006020820190508181036000830152612e5c81612a47565b9050919050565b60006020820190508181036000830152612e7c81612a6a565b9050919050565b60006020820190508181036000830152612e9c81612a8d565b9050919050565b60006020820190508181036000830152612ebc81612ab0565b9050919050565b60006020820190508181036000830152612edc81612ad3565b9050919050565b60006020820190508181036000830152612efc81612af6565b9050919050565b60006020820190508181036000830152612f1c81612b19565b9050919050565b60006020820190508181036000830152612f3c81612b3c565b9050919050565b60006020820190508181036000830152612f5c81612b5f565b9050919050565b60006020820190508181036000830152612f7c81612b82565b9050919050565b60006020820190508181036000830152612f9c81612ba5565b9050919050565b60006020820190508181036000830152612fbc81612bc8565b9050919050565b60006020820190508181036000830152612fdc81612c0e565b9050919050565b60006020820190508181036000830152612ffc81612c54565b9050919050565b60006020820190506130186000830184612c77565b92915050565b6000613028613039565b90506130348282613319565b919050565b6000604051905090565b600067ffffffffffffffff82111561305e5761305d613451565b5b61306782613480565b9050602081019050919050565b600067ffffffffffffffff82111561308f5761308e613451565b5b61309882613480565b9050602081019050919050565b600081519050919050565b600081519050919050565b600082825260208201905092915050565b600082825260208201905092915050565b600081905092915050565b60006130f382613271565b91506130fe83613271565b9250827fffffffffffffffffffffffffffffffffffffffffffffffffffffffffffffffff03821115613133576131326133c4565b5b828201905092915050565b600061314982613271565b915061315483613271565b925082613164576131636133f3565b5b828204905092915050565b600061317a82613271565b915061318583613271565b9250817fffffffffffffffffffffffffffffffffffffffffffffffffffffffffffffffff04831182151516156131be576131bd6133c4565b5b828202905092915050565b60006131d482613271565b91506131df83613271565b9250828210156131f2576131f16133c4565b5b828203905092915050565b600061320882613251565b9050919050565b60008115159050919050565b6000819050919050565b60007fffffffff0000000000000000000000000000000000000000000000000000000082169050919050565b600073ffffffffffffffffffffffffffffffffffffffff82169050919050565b6000819050919050565b82818337600083830152505050565b60005b838110156132a857808201518184015260208101905061328d565b838111156132b7576000848401525b50505050565b60006132c882613271565b915060008214156132dc576132db6133c4565b5b600182039050919050565b600060028204905060018216806132ff57607f821691505b6020821081141561331357613312613422565b5b50919050565b61332282613480565b810181811067ffffffffffffffff8211171561334157613340613451565b5b80604052505050565b600061335582613271565b91507fffffffffffffffffffffffffffffffffffffffffffffffffffffffffffffffff821415613388576133876133c4565b5b600182019050919050565b600061339e82613271565b91506133a983613271565b9250826133b9576133b86133f3565b5b828206905092915050565b7f4e487b7100000000000000000000000000000000000000000000000000000000600052601160045260246000fd5b7f4e487b7100000000000000000000000000000000000000000000000000000000600052601260045260246000fd5b7f4e487b7100000000000000000000000000000000000000000000000000000000600052602260045260246000fd5b7f4e487b7100000000000000000000000000000000000000000000000000000000600052604160045260246000fd5b6000601f19601f8301169050919050565b7f537472696e67733a20686578206c656e67746820696e73756666696369656e74600082015250565b7f4552433732313a207472616e7366657220746f206e6f6e20455243373231526560008201527f63656976657220696d706c656d656e7465720000000000000000000000000000602082015250565b7f4552433732313a207472616e736665722066726f6d20696e636f72726563742060008201527f6f776e6572000000000000000000000000000000000000000000000000000000602082015250565b7f4552433732313a20746f6b656e20616c7265616479206d696e74656400000000600082015250565b7f4552433732313a207472616e7366657220746f20746865207a65726f2061646460008201527f7265737300000000000000000000000000000000000000000000000000000000602082015250565b7f4552433732313a20617070726f766520746f2063616c6c657200000000000000600082015250565b7f4552433732313a206f70657261746f7220717565727920666f72206e6f6e657860008201527f697374656e7420746f6b656e0000000000000000000000000000000000000000602082015250565b7f4552433732313a20617070726f76652063616c6c6572206973206e6f74206f7760008201527f6e6572206e6f7220617070726f76656420666f7220616c6c0000000000000000602082015250565b7f4552433732313a2062616c616e636520717565727920666f7220746865207a6560008201527f726f206164647265737300000000000000000000000000000000000000000000602082015250565b7f4552433732313a206f776e657220717565727920666f72206e6f6e657869737460008201527f656e7420746f6b656e0000000000000000000000000000000000000000000000602082015250565b7f45524337323155524953746f726167653a2055524920736574206f66206e6f6e60008201527f6578697374656e7420746f6b656e000000000000000000000000000000000000602082015250565b7f4552433732313a206d696e7420746f20746865207a65726f2061646472657373600082015250565b7f45524337323155524953746f726167653a2055524920717565727920666f722060008201527f6e6f6e6578697374656e7420746f6b656e000000000000000000000000000000602082015250565b7f4552433732313a20617070726f76656420717565727920666f72206e6f6e657860008201527f697374656e7420746f6b656e0000000000000000000000000000000000000000602082015250565b7f4552433732314d657461646174613a2055524920717565727920666f72206e6f60008201527f6e6578697374656e7420746f6b656e0000000000000000000000000000000000602082015250565b7f4552433732313a20617070726f76616c20746f2063757272656e74206f776e6560008201527f7200000000000000000000000000000000000000000000000000000000000000602082015250565b7f4552433732313a207472616e736665722063616c6c6572206973206e6f74206f60008201527f776e6572206e6f7220617070726f766564000000000000000000000000000000602082015250565b7f416363657373436f6e74726f6c3a206163636f756e7420000000000000000000600082015250565b7f4552433732314275726e61626c653a2063616c6c6572206973206e6f74206f7760008201527f6e6572206e6f7220617070726f76656400000000000000000000000000000000602082015250565b7f206973206d697373696e6720726f6c6520000000000000000000000000000000600082015250565b7f416363657373436f6e74726f6c3a2063616e206f6e6c792072656e6f756e636560008201527f20726f6c657320666f722073656c660000000000000000000000000000000000602082015250565b613a31816131fd565b8114613a3c57600080fd5b50565b613a488161320f565b8114613a5357600080fd5b50565b613a5f8161321b565b8114613a6a57600080fd5b50565b613a7681613225565b8114613a8157600080fd5b50565b613a8d81613271565b8114613a9857600080fd5b5056fea264697066735822122099a36550e6518aa22dc6aa34d1def7f1b5420775e1f56f5bc26820b3c6bb253864736f6c63430008040033",
  "linkReferences": {},
  "deployedLinkReferences": {}
}